{
  "_format": "hh-sol-artifact-1",
  "contractName": "Etherbase",
  "sourceName": "contracts/Etherbase.sol",
  "abi": [
    {
      "inputs": [
        {
          "internalType": "address",
          "name": "schainOwner",
          "type": "address"
        }
      ],
      "stateMutability": "nonpayable",
      "type": "constructor"
    },
    {
      "anonymous": false,
      "inputs": [
        {
          "indexed": false,
          "internalType": "address",
          "name": "sender",
          "type": "address"
        },
        {
          "indexed": false,
          "internalType": "uint256",
          "name": "amount",
          "type": "uint256"
        }
      ],
      "name": "EtherReceived",
      "type": "event"
    },
    {
      "anonymous": false,
      "inputs": [
        {
          "indexed": false,
          "internalType": "address",
          "name": "receiver",
          "type": "address"
        },
        {
          "indexed": false,
          "internalType": "uint256",
          "name": "amount",
          "type": "uint256"
        }
      ],
      "name": "EtherSent",
      "type": "event"
    },
    {
      "anonymous": false,
      "inputs": [
        {
          "indexed": true,
          "internalType": "bytes32",
          "name": "role",
          "type": "bytes32"
        },
        {
          "indexed": true,
          "internalType": "bytes32",
          "name": "previousAdminRole",
          "type": "bytes32"
        },
        {
          "indexed": true,
          "internalType": "bytes32",
          "name": "newAdminRole",
          "type": "bytes32"
        }
      ],
      "name": "RoleAdminChanged",
      "type": "event"
    },
    {
      "anonymous": false,
      "inputs": [
        {
          "indexed": true,
          "internalType": "bytes32",
          "name": "role",
          "type": "bytes32"
        },
        {
          "indexed": true,
          "internalType": "address",
          "name": "account",
          "type": "address"
        },
        {
          "indexed": true,
          "internalType": "address",
          "name": "sender",
          "type": "address"
        }
      ],
      "name": "RoleGranted",
      "type": "event"
    },
    {
      "anonymous": false,
      "inputs": [
        {
          "indexed": true,
          "internalType": "bytes32",
          "name": "role",
          "type": "bytes32"
        },
        {
          "indexed": true,
          "internalType": "address",
          "name": "account",
          "type": "address"
        },
        {
          "indexed": true,
          "internalType": "address",
          "name": "sender",
          "type": "address"
        }
      ],
      "name": "RoleRevoked",
      "type": "event"
    },
    {
      "inputs": [],
      "name": "DEFAULT_ADMIN_ROLE",
      "outputs": [
        {
          "internalType": "bytes32",
          "name": "",
          "type": "bytes32"
        }
      ],
      "stateMutability": "view",
      "type": "function"
    },
    {
      "inputs": [],
      "name": "ETHER_MANAGER_ROLE",
      "outputs": [
        {
          "internalType": "bytes32",
          "name": "",
          "type": "bytes32"
        }
      ],
      "stateMutability": "view",
      "type": "function"
    },
    {
      "inputs": [
        {
          "internalType": "bytes32",
          "name": "role",
          "type": "bytes32"
        }
      ],
      "name": "getRoleAdmin",
      "outputs": [
        {
          "internalType": "bytes32",
          "name": "",
          "type": "bytes32"
        }
      ],
      "stateMutability": "view",
      "type": "function"
    },
    {
      "inputs": [
        {
          "internalType": "bytes32",
          "name": "role",
          "type": "bytes32"
        },
        {
          "internalType": "uint256",
          "name": "index",
          "type": "uint256"
        }
      ],
      "name": "getRoleMember",
      "outputs": [
        {
          "internalType": "address",
          "name": "",
          "type": "address"
        }
      ],
      "stateMutability": "view",
      "type": "function"
    },
    {
      "inputs": [
        {
          "internalType": "bytes32",
          "name": "role",
          "type": "bytes32"
        }
      ],
      "name": "getRoleMemberCount",
      "outputs": [
        {
          "internalType": "uint256",
          "name": "",
          "type": "uint256"
        }
      ],
      "stateMutability": "view",
      "type": "function"
    },
    {
      "inputs": [
        {
          "internalType": "bytes32",
          "name": "role",
          "type": "bytes32"
        },
        {
          "internalType": "address",
          "name": "account",
          "type": "address"
        }
      ],
      "name": "grantRole",
      "outputs": [],
      "stateMutability": "nonpayable",
      "type": "function"
    },
    {
      "inputs": [
        {
          "internalType": "bytes32",
          "name": "role",
          "type": "bytes32"
        },
        {
          "internalType": "address",
          "name": "account",
          "type": "address"
        }
      ],
      "name": "hasRole",
      "outputs": [
        {
          "internalType": "bool",
          "name": "",
          "type": "bool"
        }
      ],
      "stateMutability": "view",
      "type": "function"
    },
    {
      "inputs": [
        {
          "internalType": "address payable",
          "name": "receiver",
          "type": "address"
        },
        {
          "internalType": "uint256",
          "name": "amount",
          "type": "uint256"
        }
      ],
      "name": "partiallyRetrieve",
      "outputs": [],
      "stateMutability": "nonpayable",
      "type": "function"
    },
    {
      "inputs": [
        {
          "internalType": "bytes32",
          "name": "role",
          "type": "bytes32"
        },
        {
          "internalType": "address",
          "name": "account",
          "type": "address"
        }
      ],
      "name": "renounceRole",
      "outputs": [],
      "stateMutability": "nonpayable",
      "type": "function"
    },
    {
      "inputs": [
        {
          "internalType": "address payable",
          "name": "receiver",
          "type": "address"
        }
      ],
      "name": "retrieve",
      "outputs": [],
      "stateMutability": "nonpayable",
      "type": "function"
    },
    {
      "inputs": [
        {
          "internalType": "bytes32",
          "name": "role",
          "type": "bytes32"
        },
        {
          "internalType": "address",
          "name": "account",
          "type": "address"
        }
      ],
      "name": "revokeRole",
      "outputs": [],
      "stateMutability": "nonpayable",
      "type": "function"
    },
    {
      "inputs": [
        {
          "internalType": "bytes4",
          "name": "interfaceId",
          "type": "bytes4"
        }
      ],
      "name": "supportsInterface",
      "outputs": [
        {
          "internalType": "bool",
          "name": "",
          "type": "bool"
        }
      ],
      "stateMutability": "view",
      "type": "function"
    },
    {
      "stateMutability": "payable",
      "type": "receive"
    }
  ],
  "bytecode": "0x60806040523480156200001157600080fd5b5060405162001e3538038062001e35833981810160405281019062000037919062000385565b6200004c6000801b826200008560201b60201c565b6200007e7fe0ba7b49edc651b7ad93b374c67f1e9a0d37370168bbb86b81c569ebfa15f046826200008560201b60201c565b50620003b7565b6200009c8282620000cd60201b620007771760201c565b620000c88160016000858152602001908152602001600020620000e360201b620007851790919060201c565b505050565b620000df82826200011b60201b60201c565b5050565b600062000113836000018373ffffffffffffffffffffffffffffffffffffffff1660001b6200020c60201b60201c565b905092915050565b6200012d82826200028660201b60201c565b6200020857600160008084815260200190815260200160002060000160008373ffffffffffffffffffffffffffffffffffffffff1673ffffffffffffffffffffffffffffffffffffffff16815260200190815260200160002060006101000a81548160ff021916908315150217905550620001ad620002f060201b60201c565b73ffffffffffffffffffffffffffffffffffffffff168173ffffffffffffffffffffffffffffffffffffffff16837f2f8788117e7eff1d82e926ec794901d17c78024a50270940304540a733656f0d60405160405180910390a45b5050565b6000620002208383620002f860201b60201c565b6200027b57826000018290806001815401808255809150506001900390600052602060002001600090919091909150558260000180549050836001016000848152602001908152602001600020819055506001905062000280565b600090505b92915050565b600080600084815260200190815260200160002060000160008373ffffffffffffffffffffffffffffffffffffffff1673ffffffffffffffffffffffffffffffffffffffff16815260200190815260200160002060009054906101000a900460ff16905092915050565b600033905090565b600080836001016000848152602001908152602001600020541415905092915050565b600080fd5b600073ffffffffffffffffffffffffffffffffffffffff82169050919050565b60006200034d8262000320565b9050919050565b6200035f8162000340565b81146200036b57600080fd5b50565b6000815190506200037f8162000354565b92915050565b6000602082840312156200039e576200039d6200031b565b5b6000620003ae848285016200036e565b91505092915050565b611a6e80620003c76000396000f3fe6080604052600436106100ab5760003560e01c80639010d07c116100645780639010d07c1461020e57806391d148541461024b578063a217fddf14610288578063bc2a1e8d146102b3578063ca15c873146102de578063d547741f1461031b576100eb565b806301ffc9a7146100f05780630a79309b1461012d578063204a3e9314610156578063248a9ca31461017f5780632f2ff15d146101bc57806336568abe146101e5576100eb565b366100eb577f1e57e3bb474320be3d2c77138f75b7c3941292d647f5f9634e33a8e94e0e069b33346040516100e19291906110ac565b60405180910390a1005b600080fd5b3480156100fc57600080fd5b5061011760048036038101906101129190611132565b610344565b604051610124919061117a565b60405180910390f35b34801561013957600080fd5b50610154600480360381019061014f91906111d3565b6103be565b005b34801561016257600080fd5b5061017d6004803603810190610178919061122c565b610434565b005b34801561018b57600080fd5b506101a660048036038101906101a191906112a2565b6105d4565b6040516101b391906112de565b60405180910390f35b3480156101c857600080fd5b506101e360048036038101906101de9190611325565b6105f3565b005b3480156101f157600080fd5b5061020c60048036038101906102079190611325565b610627565b005b34801561021a57600080fd5b5061023560048036038101906102309190611365565b61065b565b60405161024291906113a5565b60405180910390f35b34801561025757600080fd5b50610272600480360381019061026d9190611325565b61068a565b60405161027f919061117a565b60405180910390f35b34801561029457600080fd5b5061029d6106f4565b6040516102aa91906112de565b60405180910390f35b3480156102bf57600080fd5b506102c86106fb565b6040516102d591906112de565b60405180910390f35b3480156102ea57600080fd5b50610305600480360381019061030091906112a2565b61071f565b60405161031291906113c0565b60405180910390f35b34801561032757600080fd5b50610342600480360381019061033d9190611325565b610743565b005b60007f5a05180f000000000000000000000000000000000000000000000000000000007bffffffffffffffffffffffffffffffffffffffffffffffffffffffff1916827bffffffffffffffffffffffffffffffffffffffffffffffffffffffff191614806103b757506103b6826107b5565b5b9050919050565b6103e87fe0ba7b49edc651b7ad93b374c67f1e9a0d37370168bbb86b81c569ebfa15f0463361068a565b610427576040517f08c379a000000000000000000000000000000000000000000000000000000000815260040161041e90611438565b60405180910390fd5b6104318147610434565b50565b61045e7fe0ba7b49edc651b7ad93b374c67f1e9a0d37370168bbb86b81c569ebfa15f0463361068a565b61049d576040517f08c379a000000000000000000000000000000000000000000000000000000000815260040161049490611438565b60405180910390fd5b600073ffffffffffffffffffffffffffffffffffffffff168273ffffffffffffffffffffffffffffffffffffffff16141561050d576040517f08c379a0000000000000000000000000000000000000000000000000000000008152600401610504906114a4565b60405180910390fd5b47811115610550576040517f08c379a000000000000000000000000000000000000000000000000000000000815260040161054790611510565b60405180910390fd5b7f6109e2559dfa766aaec7118351d48a523f0a4157f49c8d68749c8ac41318ad12828260405161058192919061158f565b60405180910390a18173ffffffffffffffffffffffffffffffffffffffff166108fc829081150290604051600060405180830381858888f193505050501580156105cf573d6000803e3d6000fd5b505050565b6000806000838152602001908152602001600020600101549050919050565b6105fd828261082f565b610622816001600085815260200190815260200160002061078590919063ffffffff16565b505050565b6106318282610858565b61065681600160008581526020019081526020016000206108db90919063ffffffff16565b505050565b6000610682826001600086815260200190815260200160002061090b90919063ffffffff16565b905092915050565b600080600084815260200190815260200160002060000160008373ffffffffffffffffffffffffffffffffffffffff1673ffffffffffffffffffffffffffffffffffffffff16815260200190815260200160002060009054906101000a900460ff16905092915050565b6000801b81565b7fe0ba7b49edc651b7ad93b374c67f1e9a0d37370168bbb86b81c569ebfa15f04681565b600061073c60016000848152602001908152602001600020610925565b9050919050565b61074d828261093a565b61077281600160008581526020019081526020016000206108db90919063ffffffff16565b505050565b6107818282610963565b5050565b60006107ad836000018373ffffffffffffffffffffffffffffffffffffffff1660001b610a43565b905092915050565b60007f7965db0b000000000000000000000000000000000000000000000000000000007bffffffffffffffffffffffffffffffffffffffffffffffffffffffff1916827bffffffffffffffffffffffffffffffffffffffffffffffffffffffff19161480610828575061082782610ab3565b5b9050919050565b610838826105d4565b61084981610844610b1d565b610b25565b6108538383610963565b505050565b610860610b1d565b73ffffffffffffffffffffffffffffffffffffffff168173ffffffffffffffffffffffffffffffffffffffff16146108cd576040517f08c379a00000000000000000000000000000000000000000000000000000000081526004016108c49061162a565b60405180910390fd5b6108d78282610bc2565b5050565b6000610903836000018373ffffffffffffffffffffffffffffffffffffffff1660001b610ca3565b905092915050565b600061091a8360000183610db7565b60001c905092915050565b600061093382600001610de2565b9050919050565b610943826105d4565b6109548161094f610b1d565b610b25565b61095e8383610bc2565b505050565b61096d828261068a565b610a3f57600160008084815260200190815260200160002060000160008373ffffffffffffffffffffffffffffffffffffffff1673ffffffffffffffffffffffffffffffffffffffff16815260200190815260200160002060006101000a81548160ff0219169083151502179055506109e4610b1d565b73ffffffffffffffffffffffffffffffffffffffff168173ffffffffffffffffffffffffffffffffffffffff16837f2f8788117e7eff1d82e926ec794901d17c78024a50270940304540a733656f0d60405160405180910390a45b5050565b6000610a4f8383610df3565b610aa8578260000182908060018154018082558091505060019003906000526020600020016000909190919091505582600001805490508360010160008481526020019081526020016000208190555060019050610aad565b600090505b92915050565b60007f01ffc9a7000000000000000000000000000000000000000000000000000000007bffffffffffffffffffffffffffffffffffffffffffffffffffffffff1916827bffffffffffffffffffffffffffffffffffffffffffffffffffffffff1916149050919050565b600033905090565b610b2f828261068a565b610bbe57610b548173ffffffffffffffffffffffffffffffffffffffff166014610e16565b610b628360001c6020610e16565b604051602001610b7392919061175c565b6040516020818303038152906040526040517f08c379a0000000000000000000000000000000000000000000000000000000008152600401610bb591906117e0565b60405180910390fd5b5050565b610bcc828261068a565b15610c9f57600080600084815260200190815260200160002060000160008373ffffffffffffffffffffffffffffffffffffffff1673ffffffffffffffffffffffffffffffffffffffff16815260200190815260200160002060006101000a81548160ff021916908315150217905550610c44610b1d565b73ffffffffffffffffffffffffffffffffffffffff168173ffffffffffffffffffffffffffffffffffffffff16837ff6391f5c32d9c69d2a47ea670b442974b53935d1edc7fd64eb21e047a839171b60405160405180910390a45b5050565b60008083600101600084815260200190815260200160002054905060008114610dab576000600182610cd59190611831565b9050600060018660000180549050610ced9190611831565b9050818114610d5c576000866000018281548110610d0e57610d0d611865565b5b9060005260206000200154905080876000018481548110610d3257610d31611865565b5b90600052602060002001819055508387600101600083815260200190815260200160002081905550505b85600001805480610d7057610d6f611894565b5b600190038181906000526020600020016000905590558560010160008681526020019081526020016000206000905560019350505050610db1565b60009150505b92915050565b6000826000018281548110610dcf57610dce611865565b5b9060005260206000200154905092915050565b600081600001805490509050919050565b600080836001016000848152602001908152602001600020541415905092915050565b606060006002836002610e2991906118c3565b610e33919061191d565b67ffffffffffffffff811115610e4c57610e4b611973565b5b6040519080825280601f01601f191660200182016040528015610e7e5781602001600182028036833780820191505090505b5090507f300000000000000000000000000000000000000000000000000000000000000081600081518110610eb657610eb5611865565b5b60200101907effffffffffffffffffffffffffffffffffffffffffffffffffffffffffffff1916908160001a9053507f780000000000000000000000000000000000000000000000000000000000000081600181518110610f1a57610f19611865565b5b60200101907effffffffffffffffffffffffffffffffffffffffffffffffffffffffffffff1916908160001a90535060006001846002610f5a91906118c3565b610f64919061191d565b90505b6001811115611004577f3031323334353637383961626364656600000000000000000000000000000000600f861660108110610fa657610fa5611865565b5b1a60f81b828281518110610fbd57610fbc611865565b5b60200101907effffffffffffffffffffffffffffffffffffffffffffffffffffffffffffff1916908160001a905350600485901c945080610ffd906119a2565b9050610f67565b5060008414611048576040517f08c379a000000000000000000000000000000000000000000000000000000000815260040161103f90611a18565b60405180910390fd5b8091505092915050565b600073ffffffffffffffffffffffffffffffffffffffff82169050919050565b600061107d82611052565b9050919050565b61108d81611072565b82525050565b6000819050919050565b6110a681611093565b82525050565b60006040820190506110c16000830185611084565b6110ce602083018461109d565b9392505050565b600080fd5b60007fffffffff0000000000000000000000000000000000000000000000000000000082169050919050565b61110f816110da565b811461111a57600080fd5b50565b60008135905061112c81611106565b92915050565b600060208284031215611148576111476110d5565b5b60006111568482850161111d565b91505092915050565b60008115159050919050565b6111748161115f565b82525050565b600060208201905061118f600083018461116b565b92915050565b60006111a082611052565b9050919050565b6111b081611195565b81146111bb57600080fd5b50565b6000813590506111cd816111a7565b92915050565b6000602082840312156111e9576111e86110d5565b5b60006111f7848285016111be565b91505092915050565b61120981611093565b811461121457600080fd5b50565b60008135905061122681611200565b92915050565b60008060408385031215611243576112426110d5565b5b6000611251858286016111be565b925050602061126285828601611217565b9150509250929050565b6000819050919050565b61127f8161126c565b811461128a57600080fd5b50565b60008135905061129c81611276565b92915050565b6000602082840312156112b8576112b76110d5565b5b60006112c68482850161128d565b91505092915050565b6112d88161126c565b82525050565b60006020820190506112f360008301846112cf565b92915050565b61130281611072565b811461130d57600080fd5b50565b60008135905061131f816112f9565b92915050565b6000806040838503121561133c5761133b6110d5565b5b600061134a8582860161128d565b925050602061135b85828601611310565b9150509250929050565b6000806040838503121561137c5761137b6110d5565b5b600061138a8582860161128d565b925050602061139b85828601611217565b9150509250929050565b60006020820190506113ba6000830184611084565b92915050565b60006020820190506113d5600083018461109d565b92915050565b600082825260208201905092915050565b7f45544845525f4d414e414745525f524f4c452069732072657175697265640000600082015250565b6000611422601e836113db565b915061142d826113ec565b602082019050919050565b6000602082019050818103600083015261145181611415565b9050919050565b7f52656365697665722061646472657373206973206e6f74207365740000000000600082015250565b600061148e601b836113db565b915061149982611458565b602082019050919050565b600060208201905081810360008301526114bd81611481565b9050919050565b7f496e73756666696369656e742066756e64730000000000000000000000000000600082015250565b60006114fa6012836113db565b9150611505826114c4565b602082019050919050565b60006020820190508181036000830152611529816114ed565b9050919050565b6000819050919050565b600061155561155061154b84611052565b611530565b611052565b9050919050565b60006115678261153a565b9050919050565b60006115798261155c565b9050919050565b6115898161156e565b82525050565b60006040820190506115a46000830185611580565b6115b1602083018461109d565b9392505050565b7f416363657373436f6e74726f6c3a2063616e206f6e6c792072656e6f756e636560008201527f20726f6c657320666f722073656c660000000000000000000000000000000000602082015250565b6000611614602f836113db565b915061161f826115b8565b604082019050919050565b6000602082019050818103600083015261164381611607565b9050919050565b600081905092915050565b7f416363657373436f6e74726f6c3a206163636f756e7420000000000000000000600082015250565b600061168b60178361164a565b915061169682611655565b601782019050919050565b600081519050919050565b60005b838110156116ca5780820151818401526020810190506116af565b838111156116d9576000848401525b50505050565b60006116ea826116a1565b6116f4818561164a565b93506117048185602086016116ac565b80840191505092915050565b7f206973206d697373696e6720726f6c6520000000000000000000000000000000600082015250565b600061174660118361164a565b915061175182611710565b601182019050919050565b60006117678261167e565b915061177382856116df565b915061177e82611739565b915061178a82846116df565b91508190509392505050565b6000601f19601f8301169050919050565b60006117b2826116a1565b6117bc81856113db565b93506117cc8185602086016116ac565b6117d581611796565b840191505092915050565b600060208201905081810360008301526117fa81846117a7565b905092915050565b7f4e487b7100000000000000000000000000000000000000000000000000000000600052601160045260246000fd5b600061183c82611093565b915061184783611093565b92508282101561185a57611859611802565b5b828203905092915050565b7f4e487b7100000000000000000000000000000000000000000000000000000000600052603260045260246000fd5b7f4e487b7100000000000000000000000000000000000000000000000000000000600052603160045260246000fd5b60006118ce82611093565b91506118d983611093565b9250817fffffffffffffffffffffffffffffffffffffffffffffffffffffffffffffffff048311821515161561191257611911611802565b5b828202905092915050565b600061192882611093565b915061193383611093565b9250827fffffffffffffffffffffffffffffffffffffffffffffffffffffffffffffffff0382111561196857611967611802565b5b828201905092915050565b7f4e487b7100000000000000000000000000000000000000000000000000000000600052604160045260246000fd5b60006119ad82611093565b915060008214156119c1576119c0611802565b5b600182039050919050565b7f537472696e67733a20686578206c656e67746820696e73756666696369656e74600082015250565b6000611a026020836113db565b9150611a0d826119cc565b602082019050919050565b60006020820190508181036000830152611a31816119f5565b905091905056fea2646970667358221220f848b0f9517c310802f8c53026cd734cd8337fffeb8824686aa534016e4e3bd464736f6c63430008090033",
  "linkReferences": {},
  "deployedLinkReferences": {}
}