{
  "_format": "hh-sol-artifact-1",
  "contractName": "EtherbaseUpgradeable",
  "sourceName": "contracts/EtherbaseUpgradeable.sol",
  "abi": [
    {
      "anonymous": false,
      "inputs": [
        {
          "indexed": false,
          "internalType": "address",
          "name": "sender",
          "type": "address"
        },
        {
          "indexed": false,
          "internalType": "uint256",
          "name": "amount",
          "type": "uint256"
        }
      ],
      "name": "EtherReceived",
      "type": "event"
    },
    {
      "anonymous": false,
      "inputs": [
        {
          "indexed": false,
          "internalType": "address",
          "name": "receiver",
          "type": "address"
        },
        {
          "indexed": false,
          "internalType": "uint256",
          "name": "amount",
          "type": "uint256"
        }
      ],
      "name": "EtherSent",
      "type": "event"
    },
    {
      "anonymous": false,
      "inputs": [
        {
          "indexed": true,
          "internalType": "bytes32",
          "name": "role",
          "type": "bytes32"
        },
        {
          "indexed": true,
          "internalType": "bytes32",
          "name": "previousAdminRole",
          "type": "bytes32"
        },
        {
          "indexed": true,
          "internalType": "bytes32",
          "name": "newAdminRole",
          "type": "bytes32"
        }
      ],
      "name": "RoleAdminChanged",
      "type": "event"
    },
    {
      "anonymous": false,
      "inputs": [
        {
          "indexed": true,
          "internalType": "bytes32",
          "name": "role",
          "type": "bytes32"
        },
        {
          "indexed": true,
          "internalType": "address",
          "name": "account",
          "type": "address"
        },
        {
          "indexed": true,
          "internalType": "address",
          "name": "sender",
          "type": "address"
        }
      ],
      "name": "RoleGranted",
      "type": "event"
    },
    {
      "anonymous": false,
      "inputs": [
        {
          "indexed": true,
          "internalType": "bytes32",
          "name": "role",
          "type": "bytes32"
        },
        {
          "indexed": true,
          "internalType": "address",
          "name": "account",
          "type": "address"
        },
        {
          "indexed": true,
          "internalType": "address",
          "name": "sender",
          "type": "address"
        }
      ],
      "name": "RoleRevoked",
      "type": "event"
    },
    {
      "inputs": [],
      "name": "DEFAULT_ADMIN_ROLE",
      "outputs": [
        {
          "internalType": "bytes32",
          "name": "",
          "type": "bytes32"
        }
      ],
      "stateMutability": "view",
      "type": "function"
    },
    {
      "inputs": [],
      "name": "ETHER_MANAGER_ROLE",
      "outputs": [
        {
          "internalType": "bytes32",
          "name": "",
          "type": "bytes32"
        }
      ],
      "stateMutability": "view",
      "type": "function"
    },
    {
      "inputs": [
        {
          "internalType": "bytes32",
          "name": "role",
          "type": "bytes32"
        }
      ],
      "name": "getRoleAdmin",
      "outputs": [
        {
          "internalType": "bytes32",
          "name": "",
          "type": "bytes32"
        }
      ],
      "stateMutability": "view",
      "type": "function"
    },
    {
      "inputs": [
        {
          "internalType": "bytes32",
          "name": "role",
          "type": "bytes32"
        },
        {
          "internalType": "uint256",
          "name": "index",
          "type": "uint256"
        }
      ],
      "name": "getRoleMember",
      "outputs": [
        {
          "internalType": "address",
          "name": "",
          "type": "address"
        }
      ],
      "stateMutability": "view",
      "type": "function"
    },
    {
      "inputs": [
        {
          "internalType": "bytes32",
          "name": "role",
          "type": "bytes32"
        }
      ],
      "name": "getRoleMemberCount",
      "outputs": [
        {
          "internalType": "uint256",
          "name": "",
          "type": "uint256"
        }
      ],
      "stateMutability": "view",
      "type": "function"
    },
    {
      "inputs": [
        {
          "internalType": "bytes32",
          "name": "role",
          "type": "bytes32"
        },
        {
          "internalType": "address",
          "name": "account",
          "type": "address"
        }
      ],
      "name": "grantRole",
      "outputs": [],
      "stateMutability": "nonpayable",
      "type": "function"
    },
    {
      "inputs": [
        {
          "internalType": "bytes32",
          "name": "role",
          "type": "bytes32"
        },
        {
          "internalType": "address",
          "name": "account",
          "type": "address"
        }
      ],
      "name": "hasRole",
      "outputs": [
        {
          "internalType": "bool",
          "name": "",
          "type": "bool"
        }
      ],
      "stateMutability": "view",
      "type": "function"
    },
    {
      "inputs": [
        {
          "internalType": "address",
          "name": "schainOwner",
          "type": "address"
        }
      ],
      "name": "initialize",
      "outputs": [],
      "stateMutability": "nonpayable",
      "type": "function"
    },
    {
      "inputs": [
        {
          "internalType": "address payable",
          "name": "receiver",
          "type": "address"
        },
        {
          "internalType": "uint256",
          "name": "amount",
          "type": "uint256"
        }
      ],
      "name": "partiallyRetrieve",
      "outputs": [],
      "stateMutability": "nonpayable",
      "type": "function"
    },
    {
      "inputs": [
        {
          "internalType": "bytes32",
          "name": "role",
          "type": "bytes32"
        },
        {
          "internalType": "address",
          "name": "account",
          "type": "address"
        }
      ],
      "name": "renounceRole",
      "outputs": [],
      "stateMutability": "nonpayable",
      "type": "function"
    },
    {
      "inputs": [
        {
          "internalType": "address payable",
          "name": "receiver",
          "type": "address"
        }
      ],
      "name": "retrieve",
      "outputs": [],
      "stateMutability": "nonpayable",
      "type": "function"
    },
    {
      "inputs": [
        {
          "internalType": "bytes32",
          "name": "role",
          "type": "bytes32"
        },
        {
          "internalType": "address",
          "name": "account",
          "type": "address"
        }
      ],
      "name": "revokeRole",
      "outputs": [],
      "stateMutability": "nonpayable",
      "type": "function"
    },
    {
      "inputs": [
        {
          "internalType": "bytes4",
          "name": "interfaceId",
          "type": "bytes4"
        }
      ],
      "name": "supportsInterface",
      "outputs": [
        {
          "internalType": "bool",
          "name": "",
          "type": "bool"
        }
      ],
      "stateMutability": "view",
      "type": "function"
    },
    {
      "stateMutability": "payable",
      "type": "receive"
    }
  ],
  "bytecode": "0x608060405234801561001057600080fd5b5061203e806100206000396000f3fe6080604052600436106100c65760003560e01c80639010d07c1161007f578063bc2a1e8d11610059578063bc2a1e8d146102ce578063c4d66de8146102f9578063ca15c87314610322578063d547741f1461035f57610106565b80639010d07c1461022957806391d1485414610266578063a217fddf146102a357610106565b806301ffc9a71461010b5780630a79309b14610148578063204a3e9314610171578063248a9ca31461019a5780632f2ff15d146101d757806336568abe1461020057610106565b36610106577f1e57e3bb474320be3d2c77138f75b7c3941292d647f5f9634e33a8e94e0e069b33346040516100fc9291906115bd565b60405180910390a1005b600080fd5b34801561011757600080fd5b50610132600480360381019061012d9190611643565b610388565b60405161013f919061168b565b60405180910390f35b34801561015457600080fd5b5061016f600480360381019061016a91906116e4565b610402565b005b34801561017d57600080fd5b506101986004803603810190610193919061173d565b610478565b005b3480156101a657600080fd5b506101c160048036038101906101bc91906117b3565b610618565b6040516101ce91906117ef565b60405180910390f35b3480156101e357600080fd5b506101fe60048036038101906101f99190611836565b610638565b005b34801561020c57600080fd5b5061022760048036038101906102229190611836565b61066c565b005b34801561023557600080fd5b50610250600480360381019061024b9190611876565b6106a0565b60405161025d91906118b6565b60405180910390f35b34801561027257600080fd5b5061028d60048036038101906102889190611836565b6106cf565b60405161029a919061168b565b60405180910390f35b3480156102af57600080fd5b506102b861073a565b6040516102c591906117ef565b60405180910390f35b3480156102da57600080fd5b506102e3610741565b6040516102f091906117ef565b60405180910390f35b34801561030557600080fd5b50610320600480360381019061031b91906118d1565b610765565b005b34801561032e57600080fd5b50610349600480360381019061034491906117b3565b61087e565b60405161035691906118fe565b60405180910390f35b34801561036b57600080fd5b5061038660048036038101906103819190611836565b6108a2565b005b60007f5a05180f000000000000000000000000000000000000000000000000000000007bffffffffffffffffffffffffffffffffffffffffffffffffffffffff1916827bffffffffffffffffffffffffffffffffffffffffffffffffffffffff191614806103fb57506103fa826108d6565b5b9050919050565b61042c7fe0ba7b49edc651b7ad93b374c67f1e9a0d37370168bbb86b81c569ebfa15f046336106cf565b61046b576040517f08c379a000000000000000000000000000000000000000000000000000000000815260040161046290611976565b60405180910390fd5b6104758147610478565b50565b6104a27fe0ba7b49edc651b7ad93b374c67f1e9a0d37370168bbb86b81c569ebfa15f046336106cf565b6104e1576040517f08c379a00000000000000000000000000000000000000000000000000000000081526004016104d890611976565b60405180910390fd5b600073ffffffffffffffffffffffffffffffffffffffff168273ffffffffffffffffffffffffffffffffffffffff161415610551576040517f08c379a0000000000000000000000000000000000000000000000000000000008152600401610548906119e2565b60405180910390fd5b47811115610594576040517f08c379a000000000000000000000000000000000000000000000000000000000815260040161058b90611a4e565b60405180910390fd5b7f6109e2559dfa766aaec7118351d48a523f0a4157f49c8d68749c8ac41318ad1282826040516105c5929190611acd565b60405180910390a18173ffffffffffffffffffffffffffffffffffffffff166108fc829081150290604051600060405180830381858888f19350505050158015610613573d6000803e3d6000fd5b505050565b600060656000838152602001908152602001600020600101549050919050565b6106428282610950565b610667816097600085815260200190815260200160002061097990919063ffffffff16565b505050565b61067682826109a9565b61069b8160976000858152602001908152602001600020610a2c90919063ffffffff16565b505050565b60006106c78260976000868152602001908152602001600020610a5c90919063ffffffff16565b905092915050565b60006065600084815260200190815260200160002060000160008373ffffffffffffffffffffffffffffffffffffffff1673ffffffffffffffffffffffffffffffffffffffff16815260200190815260200160002060009054906101000a900460ff16905092915050565b6000801b81565b7fe0ba7b49edc651b7ad93b374c67f1e9a0d37370168bbb86b81c569ebfa15f04681565b600060019054906101000a900460ff168061078b575060008054906101000a900460ff16155b6107ca576040517f08c379a00000000000000000000000000000000000000000000000000000000081526004016107c190611b68565b60405180910390fd5b60008060019054906101000a900460ff16159050801561081a576001600060016101000a81548160ff02191690831515021790555060016000806101000a81548160ff0219169083151502179055505b610822610a76565b61082f6000801b83610b67565b6108597fe0ba7b49edc651b7ad93b374c67f1e9a0d37370168bbb86b81c569ebfa15f04683610b67565b801561087a5760008060016101000a81548160ff0219169083151502179055505b5050565b600061089b60976000848152602001908152602001600020610b9b565b9050919050565b6108ac8282610bb0565b6108d18160976000858152602001908152602001600020610a2c90919063ffffffff16565b505050565b60007f7965db0b000000000000000000000000000000000000000000000000000000007bffffffffffffffffffffffffffffffffffffffffffffffffffffffff1916827bffffffffffffffffffffffffffffffffffffffffffffffffffffffff19161480610949575061094882610bd9565b5b9050919050565b61095982610618565b61096a81610965610c43565b610c4b565b6109748383610ce8565b505050565b60006109a1836000018373ffffffffffffffffffffffffffffffffffffffff1660001b610dc9565b905092915050565b6109b1610c43565b73ffffffffffffffffffffffffffffffffffffffff168173ffffffffffffffffffffffffffffffffffffffff1614610a1e576040517f08c379a0000000000000000000000000000000000000000000000000000000008152600401610a1590611bfa565b60405180910390fd5b610a288282610e39565b5050565b6000610a54836000018373ffffffffffffffffffffffffffffffffffffffff1660001b610f1b565b905092915050565b6000610a6b836000018361102f565b60001c905092915050565b600060019054906101000a900460ff1680610a9c575060008054906101000a900460ff16155b610adb576040517f08c379a0000000000000000000000000000000000000000000000000000000008152600401610ad290611b68565b60405180910390fd5b60008060019054906101000a900460ff161590508015610b2b576001600060016101000a81548160ff02191690831515021790555060016000806101000a81548160ff0219169083151502179055505b610b3361105a565b610b3b611133565b610b4361120c565b8015610b645760008060016101000a81548160ff0219169083151502179055505b50565b610b7182826112e5565b610b96816097600085815260200190815260200160002061097990919063ffffffff16565b505050565b6000610ba9826000016112f3565b9050919050565b610bb982610618565b610bca81610bc5610c43565b610c4b565b610bd48383610e39565b505050565b60007f01ffc9a7000000000000000000000000000000000000000000000000000000007bffffffffffffffffffffffffffffffffffffffffffffffffffffffff1916827bffffffffffffffffffffffffffffffffffffffffffffffffffffffff1916149050919050565b600033905090565b610c5582826106cf565b610ce457610c7a8173ffffffffffffffffffffffffffffffffffffffff166014611304565b610c888360001c6020611304565b604051602001610c99929190611d2c565b6040516020818303038152906040526040517f08c379a0000000000000000000000000000000000000000000000000000000008152600401610cdb9190611db0565b60405180910390fd5b5050565b610cf282826106cf565b610dc55760016065600084815260200190815260200160002060000160008373ffffffffffffffffffffffffffffffffffffffff1673ffffffffffffffffffffffffffffffffffffffff16815260200190815260200160002060006101000a81548160ff021916908315150217905550610d6a610c43565b73ffffffffffffffffffffffffffffffffffffffff168173ffffffffffffffffffffffffffffffffffffffff16837f2f8788117e7eff1d82e926ec794901d17c78024a50270940304540a733656f0d60405160405180910390a45b5050565b6000610dd58383611540565b610e2e578260000182908060018154018082558091505060019003906000526020600020016000909190919091505582600001805490508360010160008481526020019081526020016000208190555060019050610e33565b600090505b92915050565b610e4382826106cf565b15610f175760006065600084815260200190815260200160002060000160008373ffffffffffffffffffffffffffffffffffffffff1673ffffffffffffffffffffffffffffffffffffffff16815260200190815260200160002060006101000a81548160ff021916908315150217905550610ebc610c43565b73ffffffffffffffffffffffffffffffffffffffff168173ffffffffffffffffffffffffffffffffffffffff16837ff6391f5c32d9c69d2a47ea670b442974b53935d1edc7fd64eb21e047a839171b60405160405180910390a45b5050565b60008083600101600084815260200190815260200160002054905060008114611023576000600182610f4d9190611e01565b9050600060018660000180549050610f659190611e01565b9050818114610fd4576000866000018281548110610f8657610f85611e35565b5b9060005260206000200154905080876000018481548110610faa57610fa9611e35565b5b90600052602060002001819055508387600101600083815260200190815260200160002081905550505b85600001805480610fe857610fe7611e64565b5b600190038181906000526020600020016000905590558560010160008681526020019081526020016000206000905560019350505050611029565b60009150505b92915050565b600082600001828154811061104757611046611e35565b5b9060005260206000200154905092915050565b600060019054906101000a900460ff1680611080575060008054906101000a900460ff16155b6110bf576040517f08c379a00000000000000000000000000000000000000000000000000000000081526004016110b690611b68565b60405180910390fd5b60008060019054906101000a900460ff16159050801561110f576001600060016101000a81548160ff02191690831515021790555060016000806101000a81548160ff0219169083151502179055505b80156111305760008060016101000a81548160ff0219169083151502179055505b50565b600060019054906101000a900460ff1680611159575060008054906101000a900460ff16155b611198576040517f08c379a000000000000000000000000000000000000000000000000000000000815260040161118f90611b68565b60405180910390fd5b60008060019054906101000a900460ff1615905080156111e8576001600060016101000a81548160ff02191690831515021790555060016000806101000a81548160ff0219169083151502179055505b80156112095760008060016101000a81548160ff0219169083151502179055505b50565b600060019054906101000a900460ff1680611232575060008054906101000a900460ff16155b611271576040517f08c379a000000000000000000000000000000000000000000000000000000000815260040161126890611b68565b60405180910390fd5b60008060019054906101000a900460ff1615905080156112c1576001600060016101000a81548160ff02191690831515021790555060016000806101000a81548160ff0219169083151502179055505b80156112e25760008060016101000a81548160ff0219169083151502179055505b50565b6112ef8282610ce8565b5050565b600081600001805490509050919050565b6060600060028360026113179190611e93565b6113219190611eed565b67ffffffffffffffff81111561133a57611339611f43565b5b6040519080825280601f01601f19166020018201604052801561136c5781602001600182028036833780820191505090505b5090507f3000000000000000000000000000000000000000000000000000000000000000816000815181106113a4576113a3611e35565b5b60200101907effffffffffffffffffffffffffffffffffffffffffffffffffffffffffffff1916908160001a9053507f78000000000000000000000000000000000000000000000000000000000000008160018151811061140857611407611e35565b5b60200101907effffffffffffffffffffffffffffffffffffffffffffffffffffffffffffff1916908160001a905350600060018460026114489190611e93565b6114529190611eed565b90505b60018111156114f2577f3031323334353637383961626364656600000000000000000000000000000000600f86166010811061149457611493611e35565b5b1a60f81b8282815181106114ab576114aa611e35565b5b60200101907effffffffffffffffffffffffffffffffffffffffffffffffffffffffffffff1916908160001a905350600485901c9450806114eb90611f72565b9050611455565b5060008414611536576040517f08c379a000000000000000000000000000000000000000000000000000000000815260040161152d90611fe8565b60405180910390fd5b8091505092915050565b600080836001016000848152602001908152602001600020541415905092915050565b600073ffffffffffffffffffffffffffffffffffffffff82169050919050565b600061158e82611563565b9050919050565b61159e81611583565b82525050565b6000819050919050565b6115b7816115a4565b82525050565b60006040820190506115d26000830185611595565b6115df60208301846115ae565b9392505050565b600080fd5b60007fffffffff0000000000000000000000000000000000000000000000000000000082169050919050565b611620816115eb565b811461162b57600080fd5b50565b60008135905061163d81611617565b92915050565b600060208284031215611659576116586115e6565b5b60006116678482850161162e565b91505092915050565b60008115159050919050565b61168581611670565b82525050565b60006020820190506116a0600083018461167c565b92915050565b60006116b182611563565b9050919050565b6116c1816116a6565b81146116cc57600080fd5b50565b6000813590506116de816116b8565b92915050565b6000602082840312156116fa576116f96115e6565b5b6000611708848285016116cf565b91505092915050565b61171a816115a4565b811461172557600080fd5b50565b60008135905061173781611711565b92915050565b60008060408385031215611754576117536115e6565b5b6000611762858286016116cf565b925050602061177385828601611728565b9150509250929050565b6000819050919050565b6117908161177d565b811461179b57600080fd5b50565b6000813590506117ad81611787565b92915050565b6000602082840312156117c9576117c86115e6565b5b60006117d78482850161179e565b91505092915050565b6117e98161177d565b82525050565b600060208201905061180460008301846117e0565b92915050565b61181381611583565b811461181e57600080fd5b50565b6000813590506118308161180a565b92915050565b6000806040838503121561184d5761184c6115e6565b5b600061185b8582860161179e565b925050602061186c85828601611821565b9150509250929050565b6000806040838503121561188d5761188c6115e6565b5b600061189b8582860161179e565b92505060206118ac85828601611728565b9150509250929050565b60006020820190506118cb6000830184611595565b92915050565b6000602082840312156118e7576118e66115e6565b5b60006118f584828501611821565b91505092915050565b600060208201905061191360008301846115ae565b92915050565b600082825260208201905092915050565b7f45544845525f4d414e414745525f524f4c452069732072657175697265640000600082015250565b6000611960601e83611919565b915061196b8261192a565b602082019050919050565b6000602082019050818103600083015261198f81611953565b9050919050565b7f52656365697665722061646472657373206973206e6f74207365740000000000600082015250565b60006119cc601b83611919565b91506119d782611996565b602082019050919050565b600060208201905081810360008301526119fb816119bf565b9050919050565b7f496e73756666696369656e742066756e64730000000000000000000000000000600082015250565b6000611a38601283611919565b9150611a4382611a02565b602082019050919050565b60006020820190508181036000830152611a6781611a2b565b9050919050565b6000819050919050565b6000611a93611a8e611a8984611563565b611a6e565b611563565b9050919050565b6000611aa582611a78565b9050919050565b6000611ab782611a9a565b9050919050565b611ac781611aac565b82525050565b6000604082019050611ae26000830185611abe565b611aef60208301846115ae565b9392505050565b7f496e697469616c697a61626c653a20636f6e747261637420697320616c72656160008201527f647920696e697469616c697a6564000000000000000000000000000000000000602082015250565b6000611b52602e83611919565b9150611b5d82611af6565b604082019050919050565b60006020820190508181036000830152611b8181611b45565b9050919050565b7f416363657373436f6e74726f6c3a2063616e206f6e6c792072656e6f756e636560008201527f20726f6c657320666f722073656c660000000000000000000000000000000000602082015250565b6000611be4602f83611919565b9150611bef82611b88565b604082019050919050565b60006020820190508181036000830152611c1381611bd7565b9050919050565b600081905092915050565b7f416363657373436f6e74726f6c3a206163636f756e7420000000000000000000600082015250565b6000611c5b601783611c1a565b9150611c6682611c25565b601782019050919050565b600081519050919050565b60005b83811015611c9a578082015181840152602081019050611c7f565b83811115611ca9576000848401525b50505050565b6000611cba82611c71565b611cc48185611c1a565b9350611cd4818560208601611c7c565b80840191505092915050565b7f206973206d697373696e6720726f6c6520000000000000000000000000000000600082015250565b6000611d16601183611c1a565b9150611d2182611ce0565b601182019050919050565b6000611d3782611c4e565b9150611d438285611caf565b9150611d4e82611d09565b9150611d5a8284611caf565b91508190509392505050565b6000601f19601f8301169050919050565b6000611d8282611c71565b611d8c8185611919565b9350611d9c818560208601611c7c565b611da581611d66565b840191505092915050565b60006020820190508181036000830152611dca8184611d77565b905092915050565b7f4e487b7100000000000000000000000000000000000000000000000000000000600052601160045260246000fd5b6000611e0c826115a4565b9150611e17836115a4565b925082821015611e2a57611e29611dd2565b5b828203905092915050565b7f4e487b7100000000000000000000000000000000000000000000000000000000600052603260045260246000fd5b7f4e487b7100000000000000000000000000000000000000000000000000000000600052603160045260246000fd5b6000611e9e826115a4565b9150611ea9836115a4565b9250817fffffffffffffffffffffffffffffffffffffffffffffffffffffffffffffffff0483118215151615611ee257611ee1611dd2565b5b828202905092915050565b6000611ef8826115a4565b9150611f03836115a4565b9250827fffffffffffffffffffffffffffffffffffffffffffffffffffffffffffffffff03821115611f3857611f37611dd2565b5b828201905092915050565b7f4e487b7100000000000000000000000000000000000000000000000000000000600052604160045260246000fd5b6000611f7d826115a4565b91506000821415611f9157611f90611dd2565b5b600182039050919050565b7f537472696e67733a20686578206c656e67746820696e73756666696369656e74600082015250565b6000611fd2602083611919565b9150611fdd82611f9c565b602082019050919050565b6000602082019050818103600083015261200181611fc5565b905091905056fea26469706673582212207728fc3239bb17e7a706a1d9509e3911bd8378514f39129b43705ecacfa8987764736f6c63430008090033",
  "linkReferences": {},
  "deployedLinkReferences": {}
}